:020000040800F2
:10000000F8070020C5050008990300089B030008B5
:100010009F030008A3030008A703000800000000D6
:10002000000000000000000000000000AB0300081A
:10003000AD03000800000000AF030008B103000892
:10004000DF050008DF050008DF050008DF05000800
:10005000DF050008DF050008DF050008DF050008F0
:10006000DF050008DF050008DF050008DF050008E0
:10007000DF050008DF050008DF050008DF050008D0
:10008000DF050008DF050008DF050008DF050008C0
:10009000DF050008DF050008DF050008DF050008B0
:1000A000DF050008DF050008DF050008DF050008A0
:1000B000DF0500082F310008E5330008DF050008E0
:1000C000DF050008DF050008DF050008DF05000880
:1000D000DF05000891220008DF290008DF0500087D
:1000E000DF050008DF050008DF050008DF05000860
:1000F000DF050008DF050008DF050008DF05000850
:10010000DF050008DF050008DF050008DF0500083F
:10011000DF050008DF050008DF050008DF0500082F
:10012000DF050008DF050008DF050008DF0500081F
:10013000DF050008DF050008DF050008DF0500080F
:10014000DF050008DF050008DF050008DF050008FF
:10015000DF050008DF050008DF050008DF050008EF
:10016000DF050008DF050008DF050008DF050008DF
:10017000DF050008DF050008DF050008DF050008CF
:10018000DF050008DF05000800F002F800F052F873
:100190000AA090E8000C82448344AAF10107DA45E2
:1001A00001D100F047F8AFF2090EBAE80F0013F0E2
:1001B000010F18BFFB1A43F001031847004E00005F
:1001C000204E0000103A24BF78C878C1FAD85207F0
:1001D00024BF30C830C144BF04680C6070470000C1
:1001E0000023002400250026103A28BF78C1FBD840
:1001F000520728BF30C148BF0B607047662904F022
:100200008C86642903F09285002070471FB504F0A6
:100210007FFE04F0B7F804000020002104F062FE25
:10022000401C60600020002104F046FEE0601FBD1D
:1002300010B510BD04F0F2F91146FFF7E7FF00F02A
:1002400009F804F01EFA03B4FFF7F2FF03BC01F053
:10025000BFFF00004FF4A06000F0D4F902F04CF9A9
:1002600002F019FC4FF4E13001F0C0FF53210920E6
:1002700002F018FF5321092003F088F8A82001F0AC
:1002800025FF03F0B7FC3CA003F0FAFC03F062F892
:1002900003F068F8012002F0BAFA03F04FF803F017
:1002A0003DF83748008802F07BFE0421354800F015
:1002B00001FB01280DD10420334908800120334976
:1002C00008603349C1F884020020304908310860D1
:1002D00011E004212B4800F0EDFA60B903202A490F
:1002E000088000202949086001202949C1F88402BA
:1002F00026490831086040F6B83001F049FF02F0A5
:10030000CBFC40F2DC5001F043FF02F099FB0120EE
:10031000204908802FE01F48008809282AD2DFE8FA
:1003200000F029050B0E14171D202600194800881F
:10033000401C184908801DE003F0D7FB1AE015485F
:100340000088401C1349088014E003F0F5FB11E01D
:1003500010480088401C0F4908800BE003F008FC9F
:1003600008E00C480088401C0A49088002E003F0BD
:1003700010FC00BF00BFCEE76F6B0D0A000000004D
:100380007C0000200010024090000020808241424A
:10039000008041428E000020704700BFFEE700BF92
:1003A000FEE700BFFEE700BFFEE7704770477047FB
:1003B000704700000CB5002001900090764800685E
:1003C00040F480307449086000BF7348006800F44E
:1003D000003000900198401C0190009818B90198D5
:1003E000B0F5A04FF1D16C48006800F4003010B1B6
:1003F0000120009001E0002000900098012846D1E3
:1004000065484030006840F08050634940310860E2
:100410006248006840F44040604908605E48083027
:1004200000685D49083108600846006840F40040F3
:1004300008600846006840F4A05008605848091F4A
:100440000860081F006840F08070091F086000BF46
:100450005148006800F000700028F9D040F20570A3
:10046000504908604C480830006820F003004A49B1
:10047000083108600846006840F00200086000BFCC
:1004800045480830006800F00C000828F8D10CBD81
:1004900010B54548006840F47000434908603E4884
:1004A000006840F001003C49086000203A490831EA
:1004B0000860394800683D490840374908603C48B1
:1004C000091D0860081F006820F48020091F0860CB
:1004D000002031490C310860FFF76CFF4FF00060DD
:1004E00031498039086010BD70B500200022022318
:1004F00000240221284D08352D6805F00C0020B19C
:10050000042806D0082834D107E02A4D2A4E356049
:1005100033E02A4D284E35602FE01F4D2D1D2D68EC
:10052000C5F380541C4D2D1D2D6805F03F0154B1BD
:10053000224DB5FBF1F5184E361D3668C6F3881608
:1005400005FB06F209E01B4DB5FBF1F5124E361D19
:100550003668C6F3881605FB06F20F4D2D1D2D6873
:10056000C5F301456D1C6B00B2FBF3F5124E35600F
:1005700003E0104D104E356000BF00BF064D08353A
:100580002D68C5F303150E4E705D0B4D2D68C540EB
:10059000094E356070BD0000003802400070004018
:1005A00008544007003C024088ED00E0FFFFF6FEE3
:1005B000103000240024F4000000002000127A0013
:1005C000040000200948804709480047FEE7FEE78D
:1005D000FEE7FEE7FEE7FEE7FEE7FEE7FEE7FEE7F3
:1005E00004480549054A064B70470000910400087D
:1005F00089010008F8010020F8070020F803002016
:10060000F803002032490143324A1160704770B547
:10061000002100230F22C4781CB32E4C246804F45C
:10062000E064C4F5E064C4F30721C1F10404E3B25B
:100630000A4144789C40E1B28478144021430C077D
:10064000210E254C05786155047804F01F0501241E
:10065000AC4005786D11AD0005F1E025C5F800410D
:1006600009E0047804F01F050124AC401B4D067816
:10067000761145F8264070BD194A0A400243154BD1
:100680001B1F1A60704739B1124A121D12680243CB
:10069000104B1B1D1A6006E00E4A121D12688243A1
:1006A0000C4B1B1D1A607047042808D14FF0E02145
:1006B000096941F004014FF0E022116107E04FF0B9
:1006C000E021096921F004014FF0E0221161704737
:1006D0000000FA050CED00E000E400E080E100E03D
:1006E00080FFFF1F10B504469848844208D10121BD
:1006F000084600F086FB0021012000F082FB76E036
:100700009348844208D10121022000F07AFB0021A5
:10071000022000F076FB6AE08E48844208D1012175
:10072000042000F06EFB0021042000F06AFB5EE074
:100730008948844208D10121082000F062FB002191
:10074000082000F05EFB52E08448844208D1012179
:10075000102000F056FB0021102000F052FB46E074
:100760007F48844208D10121202000F04AFB00216B
:10077000202000F046FB3AE07A48844208D101216B
:10078000402000F03EFB0021402000F03AFB2EE02C
:100790007548844208D10121802000F032FB0021FD
:1007A000802000F02EFB22E07048844208D1012115
:1007B000801500F026FB0021A01500F022FB16E0BA
:1007C0006B48844208D10121401500F01AFB00213A
:1007D000601500F016FB0AE06648844207D101214B
:1007E000001500F00EFB0021201500F00AFB10BDE3
:1007F000F0B50A4600210023002400BF3DE001259A
:1008000005FA01F3156805EA03049C4234D1056832
:100810004F000326BE40B543056015794E00B54034
:100820000668354305601579012D02D01579022D32
:1008300016D185684F000326BE40B54385605579C3
:100840004E00B540866835438560456801268E4078
:10085000B5434560456896798E40B6B235434560EC
:10086000C5684F000326BE40B543C560D5794E002C
:10087000B540C6683543C560491C1029BFD3F0BDDB
:100880004FF6FF7101600021017141718171C171E9
:10089000704708B54FF480320092009A0A430092E4
:1008A000009AC261C161009AC261C2690092C269C4
:1008B000009208BD0246002013690B400BB10120D5
:1008C00000E0002070470146086980B27047024688
:1008D000002053690B400BB1012000E0002070475D
:1008E0000146486980B27047018370474183704771
:1008F0000AB1018300E0418370474161704742695A
:100900004A4042617047F0B5002300244D07ED0EC8
:1009100002FA05F3CE1000F1200555F826504E07D7
:10092000F70E0F26BE40B543CF1000F1200646F863
:100930002750CE1000F1200555F8265045EA030453
:10094000CE1000F1200545F82640F0BD0000024021
:100950000004024000080240000C02400010024067
:100960000014024000180240001C02400020024017
:100970000024024000280240F948006840F00100CD
:10098000F74908600020F64908310860F44800681B
:10099000F4490840F2490860F348091D0860F3482B
:1009A000EF4984310860F0481038091D0860EC48B0
:1009B000006820F48020EA4908600020E8490C31F2
:1009C0000860E7498C31086070470021E44A921CB6
:1009D000117011460870704710B5014600220023BF
:1009E00000204A11012A02D1DD4C236808E0022AC6
:1009F00003D1DB4C7034236802E0D94C7434236893
:100A000001F01F02012494401C400CB1012000E0C1
:100A1000002010BD38B5002000900024002500BF44
:100A20003120FFF7D9FF05460098401C0090009840
:100A3000B0F5A04F01D0002DF2D03120FFF7CCFF50
:100A400008B1012400E00024204638BD0146002002
:100A5000C34A106820F0F80040EAC10010607047F7
:100A6000C349086070470021BD4A7032117011708F
:100A7000012802D004280AD104E00121B84A7032CA
:100A8000117005E00521B64A7032117000E000BF18
:100A900000BF7047B7490860704770B5049C41EAD1
:100AA00082150126C6EB530645EA0645054345EA8D
:100AB0000465AB4E361D356070BDAD4908667047A4
:100AC000820142EA0172A64B84331A607047A8493A
:100AD0008866704710B5830143EA016343EA0273F5
:100AE0009F4C8834236010BDA14908677047A04916
:100AF000C864704702460020994B0833186820F0FC
:100B0000EC6042EA01031843954B083318607047C4
:100B100002460020924B0833186820F0784042EAE1
:100B2000010318438E4B08331860704701460020BC
:100B30008B4A0832106820F00300084310607047A9
:100B400087480830006800F00C007047014600201C
:100B5000834A0832106820F0F000084310607047A4
:100B6000014600207E4A0832106820F4E050084315
:100B70001060704701460020794A0832106820F45E
:100B8000604040EAC10010607047F0B500210022CB
:100B90000024022500260223714F08373F6807F022
:100BA0000C0121B1042905D0082937D105E0724F85
:100BB000076036E0714F076033E0694F3F1D3F68C3
:100BC000C7F38056664F3F1D3F6807F03F036EB185
:100BD0006A4FB7FBF3F7DFF888C10CF1040CDCF8BF
:100BE00000C0CCF3881C07FB0CF40CE0624FB7FB91
:100BF000F3F7DFF86CC10CF1040CDCF800C0CCF3A7
:100C0000881C07FB0CF4564F3F1D3F68C7F3014794
:100C10007F1C7D00B4FBF5F7076002E0564F0760CC
:100C200000BF00BF4E4F08373F6807F0F0010909C9
:100C3000534F7A5C0768D7404760494F08373F6891
:100C400007F4E051890A4E4F7A5C4768D7408760C5
:100C5000434F08373F6807F46041490B484F7A5CBF
:100C60004768D740C760F0BD002100F44072B2F57C
:100C7000407F0AD13A4A0832116821F4F811414AFA
:100C800002401143364A08321160354A7032126808
:100C9000C0F30B031A43324B70331A607047354967
:100CA0004439086070473349403908607047364915
:100CB0000860704701460020294A8C32106820F0F5
:100CC0001F004A1E1043264A8C32106070470146AE
:100CD0000020234A8C32106820F4F8504A1E40EA63
:100CE00002201F4A8C3210607047014600201C4AC7
:100CF0008C32106820F440100843106070470146A1
:100D00000020174A8C32106820F44000084310601D
:100D1000704701460020124A8C32106820F440309F
:100D200008431060704719490860704739B10C4A90
:100D30003032126802430A4B30331A6006E0084A28
:100D4000303212688243064B30331A607047F9B173
:100D5000034A343212680243014B34331A601CE0F8
:100D600000380240FFFFF6EA103000240030002077
:100D700000004742800E47420024F40000127A002F
:100D800014000020FFFCFF0F5C014742E0114742C6
:100D90008F4A126882438E4B1A60704739B18C4A71
:100DA000121D126802438A4B1B1D1A6006E0884A16
:100DB000121D12688243864B1B1D1A60704739B1A1
:100DC000834A0C3212680243814B0C331A6006E0EE
:100DD0007F4A0C32126882437D4B0C331A60704795
:100DE00039B17B4A103212680243794B10331A60D2
:100DF00006E0774A103212688243754B10331A604E
:100E0000704739B1724A243A12680243704B243B4E
:100E10001A6006E06E4A243A126882436C4B243B07
:100E20001A60704739B16A4A203A12680243684B27
:100E3000203B1A6006E0664A203A12688243644BFF
:100E4000203B1A60704739B1614A1C3A126802436C
:100E50005F4B1C3B1A6006E05D4A1C3A12688243F5
:100E60005B4B1C3B1A60704739B1594A143A1268FF
:100E70000243574B143B1A6006E0554A143A126875
:100E80008243534B143B1A60704739B1504A103AB1
:100E9000126802434E4B103B1A6006E04C4A103A6F
:100EA000126882434A4B103B1A60704739B1484A76
:100EB0001C3212680243464B1C331A6006E0444A57
:100EC0001C3212688243424B1C331A60704739B19E
:100ED0003F4A2032126802433D4B20331A6006E03D
:100EE0003B4A203212688243394B20331A607047E4
:100EF00039B1374A243212680243354B24331A6021
:100F000006E0334A243212688243314B24331A609C
:100F1000704739B12E4A2C32126802432C4B2C33C5
:100F20001A6006E02A4A2C3212688243284B2C337E
:100F30001A60704739B1264A303212680243244B96
:100F400030331A6006E0224A303212688243204B66
:100F500030331A607047012808D11D493C310968B7
:100F600041F008011A4A3C32116007E018493C314F
:100F7000096821F00801164A3C321160704739B106
:100F8000134A273A12780243114B273B1A7006E0A6
:100F90000F4A273A127882430D4B273B1A7070474D
:100FA0000B484030006840F08070094940310860CB
:100FB000704701460020064A283A12680A400AB1E2
:100FC000012000E000207047014926390870704771
:100FD0003438024010B50446FE48844208D101214D
:100FE0000846FFF752FF00210120FFF74EFF9DE06A
:100FF000B4F1804F08D101210846FFF735FF0021E9
:101000000120FFF731FF91E0F348844208D101212C
:101010000220FFF729FF00210220FFF725FF85E0CE
:10102000EE48844208D101210420FFF71DFF002172
:101030000420FFF719FF79E0E948844208D1012133
:101040000820FFF711FF00210820FFF70DFF6DE0DA
:10105000E448844208D101211020FFF705FF002158
:101060001020FFF701FF61E0DF48844208D1012131
:101070002020FFF7F9FE00212020FFF7F5FE55E0C4
:10108000DA48844208D101210220FFF7FEFE002148
:101090000220FFF7FAFE49E0D548844209D1012138
:1010A0000804FFF7F2FE00214FF48030FFF7EDFE59
:1010B0003CE0D048844209D101214804FFF7E5FE15
:1010C00000214FF40030FFF7E0FE2FE0CA488442D1
:1010D00009D101218804FFF7D8FE00214FF48020B8
:1010E000FFF7D3FE22E0C548844208D10121402009
:1010F000FFF7BAFE00214020FFF7B6FE16E0C04819
:10110000844208D101218020FFF7AEFE002180201B
:10111000FFF7AAFE0AE0BB48844207D101218015EF
:10112000FFF7A2FE0021A015FFF79EFE10BD0022D2
:101130000288A84B98420ED0AC4B98420BD0B0F12D
:10114000804F08D0A44B984205D0A44B984202D0BF
:10115000A34B984204D14FF68F731A404B881A4321
:10116000A04B984207D0A04B984204D04FF6FF43C3
:101170001A400B891A4302804B68C3620B880385AF
:10118000944B984202D0994B984201D18B7A0386B6
:101190000123838270474FF0FF31416000210180BD
:1011A00001814180817270470185828270470A46C1
:1011B000002101884FF68F73194011430180704759
:1011C00041627047C16270470146486A70470146F4
:1011D000088D704721B1028842F00202028004E0CB
:1011E00002884FF6FD731A400280704721B10288D1
:1011F00042F00402028004E002884FF6FB731A40BA
:101200000280704721B1028842F08002028004E02F
:1012100002884FF67F731A400280704702884FF6AB
:10122000F7731A40028002880A43028070470288DE
:101230004FF6FF431A40028002880A43028070473B
:1012400021B1028842F00102028004E002884FF6D8
:10125000FE731A400280704770B5002400220023FC
:10126000058C4FF6FE7635400584028C8388048B0E
:101270004FF68F752C40B51E2C400D882C43751EE3
:101280002A408D892A434D882A43524DA84202D0D4
:10129000564DA84213D14FF6F7752A40CD892A43FF
:1012A0004FF6FB752A408D882A434FF6FF652B4089
:1012B0004FF6FF552B400D8A2B434D8A2B438380DD
:1012C00004838D684563028470BD70B500240022DC
:1012D0000023058C4FF6EF7635400584028C838819
:1012E000048B48F6FF752C404FF6FF452C400D88C7
:1012F0004FF6FF7606EA05252C434FF6DF752A40A8
:101300008D8906EA05152A434D8806EA05152A4304
:10131000304DA84202D0354DA8421DD14FF67F7501
:101320002A40CD894FF6FF7606EA05152A434FF687
:10133000BF752A408D8806EA05152A434FF6FF350A
:101340002B404FF2FF752B400D8A06EA85052B4393
:101350004D8A06EA85052B43838004838D68856367
:10136000028470BD70B5002400220023058C4FF666
:10137000FF6635400584028C8388848B4FF68F7519
:101380002C404FF6FC752C400D882C434FF6FF5532
:101390002A408D894FF6FF7606EA05252A434D88B7
:1013A00006EA05252A430B4DA84202D00F4DA8425C
:1013B00038D14FF2FF752A40CD894FF6FF7606EA05
:1013C00005252A434FF6FF352A408D8806EA052574
:1013D0002A4319E0000001400004004000080040DA
:1013E000000C0040001000400014004000040140C8
:1013F0000040014000440140004801400018004006
:10140000001C0040002000404EF6FF752B404DF6BA
:10141000FF752B400D8A06EA05152B434D8A06EA17
:1014200005152B43838084838D68C563028470BD5A
:1014300070B5002200230024058C4EF6FF7635405F
:101440000584038C8488828B48F6FF752A404FF60A
:10145000FF452A400D884FF6FF7606EA05252A4308
:101460004DF6FF752B408D8906EA05352B434D88D7
:1014700006EA05352B43FE4DA84202D0FD4DA84299
:1014800008D14BF6FF752C400D8A4FF6FF7606EA21
:1014900085152C43848082838D680564038470BD28
:1014A000002101804180818081608181C181018230
:1014B0004182704770B5034600200024184618305A
:1014C00001258D40ACB21D8CA5431D8409B10829AE
:1014D0000AD100EB610005684FF68F763540056054
:1014E0000568154305600FE00D1FC5F34E05284440
:1014F000056848F6FF763540056005684FF6FF76CB
:1015000006EA02263543056070BD4163704781637A
:101510007047C1637047016470470A460021018B20
:101520004FF68F7319401143018370470A4600211B
:10153000018B48F6FF7319404FF6FF7303EA02234D
:101540001943018370470A460021818B4FF68F7340
:1015500019401143818370470A460021818B48F668
:10156000FF7319404FF6FF7303EA02231943818387
:1015700070470A460021018B4FF6F773194011435B
:10158000018370470A460021018B4FF2FF73194017
:101590004FF6FF7303EA02231943018370470A469B
:1015A0000021818B4FF6F7731940114381837047F7
:1015B0000A460021818B4FF2FF7319404FF6FF73EB
:1015C00003EA02231943818370470A460021018BF5
:1015D0004FF6FB7319401143018370470A460021FF
:1015E000018B4FF6FF3319404FF6FF7303EA0223D6
:1015F0001943018370470A460021818B4FF6FB7324
:1016000019401143818370470A460021818B4FF6B0
:10161000FF3319404FF6FF7303EA02231943818316
:1016200070470A460021018B4FF67F731940114322
:10163000018370470A460021018BC1F30E014FF66A
:10164000FF7303EA02231943018370470A4600210E
:10165000818B4FF67F7319401143818370470A468F
:101660000021818BC1F30E014FF6FF7303EA0223C1
:101670001943818370470A460021018C4FF6FD73A0
:1016800019401143018470470A460021018C4FF62E
:10169000F77319401143018470470A460021018CF9
:1016A0004FF6DF7319404FF6FF7303EA0213194335
:1016B000018470470A460021018C4FF67F73194060
:1016C0004FF6FF7303EA02131943018470470A4679
:1016D0000021018C4FF6FF5319404FF6FF7303EAC8
:1016E00002231943018470470A460021018C4FF2FE
:1016F000FF7319404FF6FF7303EA02231943018475
:1017000070470A460021018C4DF6FF7319404FF6D1
:10171000FF7303EA023319430184704730B5002395
:1017200001248C40A3B2048C9C430484048C02FAF0
:1017300001F5ADB22C43048430BD30B50023042440
:101740008C40A3B2048C9C430484048C02FA01F5FF
:10175000ADB22C43048430BD828B4FF2FF331A406C
:101760008283828B4FF6FF7303EA01231A4382833D
:101770007047F0B50C461546002100220026078C64
:101780004EF6FF7C07EA0C070784818B028C4FF62C
:10179000FF7707EA043640F6FF4739404FF6FF77F8
:1017A00007EA052739434FF6FF7707EA033739433E
:1017B00045F6FF773A4046F480573A4381830284E6
:1017C000F0BD828B4FF6F3731A408283828B0A43FB
:1017D00082837047F0B50C46154600210022002692
:1017E000078C4FF6FF6C07EA0C070784818B028C8D
:1017F0004FF6FF7707EA04264FF60C7739404FF68D
:10180000FF7707EA03172F4339434FF2FF573A4058
:1018100046F480773A4381830284F0BD028B4FF215
:10182000FF331A400283028B4FF6FF7303EA012352
:101830001A4302837047F0B50C461546002100227A
:101840000026078C4FF6EF7C07EA0C070784018B14
:10185000028C4FF6FF7707EA041640F6FF4739403F
:101860004FF6FF7707EA033739434FF6FF7703E078
:10187000000001400004014007EA052739434FF604
:101880005F773A4046F010073A4301830284F0BD87
:10189000028B4FF6F3731A400283028B0A430283D2
:1018A0007047F0B50C46154600210022068C4FF615
:1018B000FE773E400684018B028C4FF60C76314059
:1018C0007E1C06EA03162E4331434FF6F57632406E
:1018D00044F00106324301830284F0BD70B5054631
:1018E0000C46208850B92389A28861882846FFF7D2
:1018F000D8FFE1882846FFF7CBFF25E020880428A1
:101900000AD12389A28861882846FFF794FFE188DD
:101910002846FFF783FF17E0208808280AD123898B
:10192000A28861882846FFF755FFE1882846FFF71F
:1019300048FF09E02389A28861882846FFF719FF3C
:10194000E1882846FFF708FF70BD00210180418033
:10195000012181800021C180018170472DE9F04182
:1019600005460C4600260127608808B9022600E0DB
:101970000026A088012801D1022700E00127208845
:10198000A0B92389A28861882846FFF78AFFE188E9
:101990002846FFF77DFF23893A4631462846FFF760
:1019A0004AFFE1882846FFF739FF13E02389A28820
:1019B00061882846FFF73FFFE1882846FFF72EFFA2
:1019C00023893A4631462846FFF76BFFE1882846CF
:1019D000FFF75EFFBDE8F0810146486B70470146A6
:1019E000886B70470146C86B70470146086C7047AA
:1019F0000A884B881A438B881A43CB881A430B8971
:101A00001A434B891A438B891A43A0F84420704724
:101A10000021018041808180C180018141818181DB
:101A2000704731B1B0F8442042F40042A0F844209D
:101A300005E0B0F84420C2F30E02A0F8442070473D
:101A400021B1828842F00402828004E082884FF64D
:101A5000FB731A408280704721B1828842F00102F4
:101A6000828004E082884FF6FE731A4082807047BD
:101A70001AB183890B43838102E083898B4383817D
:101A800070478182704702460020138A0B400BB1D9
:101A9000012000E000207047CA430282704730B541
:101AA0000246002000230024158A05EA01039589D7
:101AB00005EA010413B10CB1012000E0002030BDA3
:101AC000CA430282704741EA0203A0F848307047D7
:101AD0001AB183890B43838102E083898B4383811D
:101AE000704721B1828842F00802828004E0828837
:101AF0004FF6F7731A408280704701894FF6F872EB
:101B00001140018170470A46002101894FF68F7309
:101B1000194011430181704730B504460D462946EE
:101B20002046FFF7F0FF208940F00700208130BDFC
:101B30002DE9F04104460D4616461F46602D06D19C
:101B40003B46012231462046FFF775FE05E03B4645
:101B5000012231462046FFF7A4FE29462046FFF722
:101B6000D2FF208940F007002081BDE8F08130B528
:101B70000C4600210189C9B24FF6FF7505EA03251D
:101B8000154325432943018130BD2DE9F041054628
:101B90000E4617469846002443463A4631462846A4
:101BA000FFF7E5FF2C894FF6F870044044F0070476
:101BB0004FF68F70044044F070042C81BDE8F08132
:101BC000F0B504460D4616461F463B4632462946AA
:101BD0002046FFF7CCFF208940F480402081F0BDF3
:101BE00082884FF68F731A40828082880A438280EF
:101BF000704702894FF6F8731A40028102890A433E
:101C00000281704702894FF67F731A400281028970
:101C10000A4302817047F0B50C4615461E46002166
:101C2000002200230189028B038C4FF6F87739409C
:101C300021434FF6FC473A4040F201173A434FF632
:101C4000DD773B404FF6FF7707EA06172F433B430C
:101C5000018102830384F0BD21B1828842F08002B9
:101C6000828004E082884FF67F731A40828070473A
:101C7000A0F850107047000010B50446FA4884429E
:101C800008D101211020FFF700F900211020FFF7F3
:101C9000FCF857E0F548844209D101214804FFF7D8
:101CA000E3F800214FF40030FFF7DEF84AE0F04897
:101CB000844209D101218804FFF7D6F800214FF4AE
:101CC0008020FFF7D1F83DE0EA48844209D10121A4
:101CD000C804FFF7C9F800214FF40020FFF7C4F84B
:101CE00030E0E548844209D101210805FFF7BCF83E
:101CF00000214FF48010FFF7B7F823E0DF4884425B
:101D000008D101212020FFF7C0F800212020FFF793
:101D1000BCF817E0DA48844209D101218807FFF7AF
:101D2000A3F800214FF08040FFF79EF80AE0D54865
:101D3000844207D101214005FFF796F80021600594
:101D4000FFF792F810BD2DE9FF4705460E46002427
:101D5000A14600BFA046B08900B100BF2C8A24F480
:101D60004054F08804432C82AC8941F20C608443D7
:101D7000B08831890843718908430443AC81AC8A37
:101D800024F44074B0890443AC826846FEF7FDFE3B
:101D9000B548854202D0B948854202D1DDF80C90A1
:101DA00001E0DDF80890A88900F4004040B109EB9B
:101DB000C90000EB091031684900B0FBF1F707E0FA
:101DC00009EBC90000EB091031688900B0FBF1F79D
:101DD0006420B7FBF0F004012009642101FB1078B6
:101DE000A88900F4004040B1322000EBC800B0FBED
:101DF000F1F000F00700044308E0322000EB081087
:101E00006421B0FBF1F000F00F0004432C81BDE829
:101E1000FF874FF41651016000218180C18001814C
:101E20000C21418100218181704710B502460020BC
:101E3000108A20F470600B884C8823438C882343DD
:101E4000CC8823431843108210BD002101804180BB
:101E50008180C180704721B1828942F40052828121
:101E600004E082894DF6FF731A4082817047028B2D
:101E700002F47F420283028B0A430283704721B13E
:101E8000828942F40042828103E08289C2F30E0219
:101E90008281704721B1828A42F40062828204E02A
:101EA000828A4FF2FF731A4082827047C1F30802A0
:101EB0008280704701468888C0F308007047028A14
:101EC0004FF6F0731A400282028A0A430282704778
:101ED00021B1828942F00202828104E082894FF6B8
:101EE000FD731A408281704782894FF2FF731A4056
:101EF000828182890A4382817047028A4FF6DF73AA
:101F00001A400282028A0A430282704721B1028A81
:101F100042F48042028204E0028A4BF6FF731A40C8
:101F200002827047818941F001018181704721B1AE
:101F3000828A42F00802828204E0828A4FF6F773B6
:101F40001A4082827047028BD2B20283028B42EA2D
:101F500001220283704721B1828A42F020028282EC
:101F600004E0828A4FF6DF731A408282704721B103
:101F7000828A42F01002828204E0828A4FF6EF7376
:101F80001A4082827047828A4FF6FB731A4082821F
:101F9000828A0A438282704721B1828A42F0020219
:101FA000828204E0828A4FF6FD731A408282704773
:101FB0001AB1838A0B43838202E0838A8B43838234
:101FC0007047F0B50346002400260025002040F6A7
:101FD0006A17B94200D100BF1846C1F3421401F09C
:101FE0001F06012707FA06F5012C01D10C3004E089
:101FF000022C01D1103000E014301AB107682F43D1
:10200000076002E00768AF430760F0BD02460020AA
:10201000B1F5007F00D100BF13880B400BB1012048
:1020200000E00020704701F40072B2F5007F00D19B
:1020300000BFCA430280704770B5024600240023E7
:102040000025002040F66A16B14200D100BFC1F35E
:10205000421501F01F03012606FA03F3012D13D1E7
:102060009689334017E00000001001400044004012
:1020700000480040004C0040005000400014014067
:1020800000780040007C0040022D02D1168A3340C7
:1020900001E0968A33400C12012606FA04F41688F1
:1020A000344013B10CB1012000E0002070BD10B528
:1020B0000022002340F66A14A14200D100BF0A1298
:1020C00001249440A3B2DC43048010BD10B5044643
:1020D0006FF00400FEF7E8FAE11704EB5171C1F369
:1020E000C701394A11701046007800EB4001C1EB7E
:1020F000C0104FF6FF7101EAC0003449088010BDDE
:102100000146314A12784A434FF0E0235A610022D7
:102110009A611A46126942F001021A6100BF4FF03B
:10212000E022106900F001021AB100F48032002AA6
:10213000F5D04FF0E022126922F001024FF0E023C7
:102140001A6100229A6170470146204A12884A4368
:102150004FF0E0235A6100229A611A46126942F058
:1021600001021A6100BF4FF0E022106900F0010285
:102170001AB100F48032002AF5D04FF0E022126943
:1021800022F001024FF0E0231A6100229A617047A9
:1021900070B504464FF4077094FBF0F0C6B24FF4EC
:1021A000077094FBF0F100FB114085B205E04FF49D
:1021B0000770FFF7C9FF701EC6B2002EF7D115B128
:1021C0002846FFF7C1FF70BD240000202600002034
:1021D000014600BF704700BFA94A128802F04002C2
:1021E000002AF9D0C2B2A64B9A80704710B588B0C9
:1021F000044601210846FEF799FD01211020FEF753
:10220000EFFD072209219F48FEF77DFB07220A21E7
:102210009C48FEF778FB4FF4C060069002208DF8D2
:102220001C008DF81D0000208DF81E0001208DF887
:102230001F0006A99348FEF7DBFA02940020ADF8D0
:102240000C00ADF80E00ADF81000ADF814000C2035
:10225000ADF8120002A98A48FFF775FD01218848F0
:10226000FFF7F9FD012240F225518548FFF7A9FE4D
:1022700025208DF8040003208DF805008DF8060058
:1022800001208DF8070001A8FEF7C1F908B010BDC4
:1022900010B540F225517A48FFF7CEFE002876D0DF
:1022A0007748FFF707FEC4B2252C16D2DFE804F00A
:1022B000B41316191C1F2225282BB4B4B4B4B4B41B
:1022C000323940474E596470B47BB4B4B4B4B4B43A
:1022D000869199A4AF0001F021F89DE001F02AF861
:1022E0009AE001F02BF897E001F02CF894E001F06F
:1022F00031F891E001F032F88EE001F033F88BE034
:1023000001F034F888E0042000F081FA082000F0A1
:102310007EFA81E0032000F07AFA082000F077FAD4
:102320007AE0052000F073FA082000F070FA73E0FC
:10233000052000F06CFA072000F069FA6CE0062036
:1023400000F065FA082000F062FA65E04E48008867
:10235000401C4D490880084601884CA001F090FCC3
:102360005AE049480088401E4749088008460188CD
:1023700046A001F085FC4FE048480088401C4749D2
:1023800008800846018846A001F07AFC44E075E028
:1023900042480088401E414908800846018840A004
:1023A00001F06EFC38E042480088401C404908803B
:1023B000084601883FA001F063FC2DE03C480088FE
:1023C000401E3B490880084601883AA001F058FCAD
:1023D00022E03C4802683C4801683CA001F050FC07
:1023E0001AE03E480088401C3C49088008460188A5
:1023F0003BA001F045FC0FE038480088401E3749FB
:1024000008800846018836A001F03AFC04E000F09C
:1024100089FF00F097FF00BF00BF3548008800F437
:10242000004058BB3248008800F4804060B10A2C5C
:1024300003D000202E49088020E02D48008840F479
:1024400000402B49088019E00D2C06D1284800884F
:1024500040F480402649088010E025480088C0F3F9
:102460000D0024490C5422480088401C2049088053
:1024700008460088C72801DD0020088010BD000044
:1024800000100140000002407A000020536572767F
:102490006F48616E643D25640D0A000078000020DD
:1024A000536572766F41726D3D25640D0A00000020
:1024B00074000020536572766F50697463683D251F
:1024C000640D0A003C00002038000020583D2564BF
:1024D0002059203D25640D0A000000007C000020EA
:1024E0006C61756E63685F70776D3D25640D0A00E1
:1024F0002C0000209C00002000B587B0012148047A
:10250000FEF75DFC01210846FEF710FC07220221C0
:10251000F748FEF7F8F907220321F548FEF7F3F92B
:102520000420059002208DF8180000208DF81A0074
:1025300003208DF8190001208DF81B0005A9EC4837
:10254000FEF756F90820059002208DF818000020AB
:102550008DF81A0003208DF8190001208DF81B005A
:1025600005A9E348FEF744F94FF4E130019000205B
:10257000ADF810000C20ADF80E000020ADF80C00F6
:10258000ADF80A00ADF8080001A9DA48FFF7DBFB57
:102590000121D848FFF75FFC012240F22551D548C0
:1025A000FFF70FFD26208DF8000001208DF80300B5
:1025B0008DF801008DF802006846FEF728F807B094
:1025C00000BD10B50446CB4800882146C948FFF736
:1025D0006DFC00BF4021C748FFF718FD0128F9D165
:1025E00010BD70B588B0044600252246C2A16846D9
:1025F00001F052FB064605E01DF80500FFF7E1FF7C
:10260000761E6D1C002EF7D108B070BD30B591B0AC
:102610000546BAA000681090B9A000680F90B9A054
:1026200000680E90B8A000680D90B8A000680C90EB
:10263000B7A000680B90B7A000680A90B6A0006829
:102640000990B6A207CA06AB07C3B74903C9CDE9CB
:102650000401B6A103C9CDE90201B6A103C9CDE9C0
:1026600000010D2D12D2DFE805F0CF07121D324711
:102670005D717C87A0B9C400002405E010A9085D45
:10268000FFF79FFF601C84B2022CF7DDBCE0002442
:1026900005E00FA9085DFFF794FF601C84B2022CCF
:1026A000F7DDB1E00020A54908600120A449C1F888
:1026B0008402A24908310860002405E00EA9085DE3
:1026C000FFF77FFF601C84B2022CF7DD9CE0012045
:1026D0009A4908609A49C1F8840200209749083154
:1026E0000860002405E00DA9085DFFF76AFF601C83
:1026F00084B2022CF7DD87E00120904908600020B9
:102700008F49C1F8840201208C49083108600024F7
:1027100005E00CA9085DFFF754FF601C84B2022C91
:10272000F7DD71E00120854908608549C1F8840220
:10273000824908310860002405E00BA9085DFFF715
:1027400040FF601C84B2022CF7DD5DE0002405E050
:102750000AA9085DFFF735FF601C84B2022CF7DD83
:1027600052E0002405E009A9085DFFF72AFF601C7C
:1027700084B2022CF7DD47E0002405E006A9085DDD
:10278000FFF71FFF601C84B2082CF7DD6D4800685E
:10279000FFF727FF2C20FFF714FF6B480068FFF7B7
:1027A00020FF3E20FFF70DFF2EE0002405E004A9E6
:1027B000085DFFF706FF601C84B2052CF7DD634857
:1027C0000068FFF70EFF2C20FFF7FBFE6048006853
:1027D000FFF707FF3E20FFF7F4FE15E0002405E0B9
:1027E00002A9085DFFF7EDFE601C84B2062CF7DD40
:1027F0000AE0002405E01DF80400FFF7E2FE601C7B
:1028000084B2062CF7DD00BF00BF11B030BD10B59B
:1028100004462046FFF7FAFE2046FFF7F7FE204663
:10282000FFF7F4FE2046FFF7F1FE2046FFF7EEFE2D
:1028300010BD30B52DED028B89B0B0EE408AF0EEC0
:10284000608A002453EC182B42A101A801F024FA5D
:10285000054605E001A9085DFFF7B3FE6D1E641C87
:10286000002DF7D10D20FFF7ACFE0A20FFF7A9FEDF
:1028700009B0BDEC028B30BD70B50025364800783C
:1028800001281ED1022405E03448015DA01E334A10
:102890001154641C324800888442F5D3002130482A
:1028A0000088401E2D4A11542D480088801E115466
:1028B000104601F077FA064600202949088026498B
:1028C0000870002503E00020244948556D1C282D80
:1028D000F9D3304670BD10B5224800783E2843D168
:1028E0001E4800783C283FD101201B4908703EE07B
:1028F0000000024000440040256400003C4B3E00C4
:102900003C533E003C523E003C423E003C473E00B1
:102910003C503E003C453E003C433E003C4A415753
:102920005F504F533D000000204F00083C54425F71
:10293000454E3E003C54425F44533E00808241423B
:102940000080414240000020440000204800002058
:102950004C000020256600003100002064010020AA
:10296000340000203000002000202B4908702A4845
:10297000007858B92948007829492A4A1288885489
:1029800028480088401C2749088027E02248007812
:10299000012823D1224840784E2806D0542818D048
:1029A00058280CD0592818D10EE042F210701E4958
:1029B00008601E49086000201A4908800DE0FFF7F2
:1029C0005BFF1949086008E0FFF756FF17490860E8
:1029D00003E001201649087000BF00BF10BD10B50C
:1029E00040F225511348FFF727FB98B10020124908
:1029F00008601248D0F8900208B9012000E00020D9
:102A00000D49091D08600B48FFF754FA0349087087
:102A1000FFF761FF10BD00003100002030000020F2
:102A20006401002034000020380000203C00002019
:102A300032000020004400408C824142008041422C
:102A400010B50121F948FDF751FF0221F748FDF7C4
:102A50004DFF0421F548FDF749FF0821F348FDF734
:102A600045FF1021F148FDF741FF2021EF48FDF718
:102A70003DFF4021ED48FDF739FF8021EB48FDF790
:102A800035FF0020EA490860EA490860EA49086021
:102A9000EA49086010BD1CB501212020FEF746F967
:102AA0004FF6FF70009001208DF8040000208DF893
:102AB000060003208DF8050001208DF80700694607
:102AC000DA48FDF795FE01210220FEF72FF92820B4
:102AD000009001208DF8040000208DF806000320EE
:102AE0008DF8050001208DF807006946D448FDF7F0
:102AF0007FFE4FF48071CD48FDF7F8FE4FF4007172
:102B0000CA48FDF7F1FEFFF79BFF1CBD10B5012180
:102B1000C648FDF7E9FE0221C448FDF7E7FE08219B
:102B2000C248FDF7E1FE0421C048FDF7DFFE102199
:102B3000BE48FDF7D9FE2021BC48FDF7D7FE802115
:102B4000BA48FDF7D1FE4021B848FDF7CFFE10BDD1
:102B500010B50221B548FDF7C7FE0121B348FDF7C6
:102B6000C5FE0421B148FDF7BFFE0821AF48FDF7BF
:102B7000BDFE2021AD48FDF7B7FE1021AB48FDF7A3
:102B8000B5FE4021A948FDF7AFFE8021A748FDF71B
:102B9000ADFE10BD10B50221A448FDF7A5FE012130
:102BA000A248FDF7A3FE0421A048FDF79DFE0821E1
:102BB0009E48FDF79BFE10219C48FDF795FE2021C5
:102BC0009A48FDF793FE80219848FDF78DFE40213D
:102BD0009648FDF78BFEA02095490860954908604E
:102BE000954908609549086010BD10B501218F48CE
:102BF000FDF77AFE02218D48FDF778FE08218B480B
:102C0000FDF772FE04218948FDF770FE20218748F8
:102C1000FDF76AFE10218548FDF768FE40218348D4
:102C2000FDF762FE80218148FDF760FEA02080490B
:102C3000086080490860804908608049086010BDCC
:102C400010B501217948FDF751FE02217748FDF7C3
:102C50004DFE08217548FDF749FE04217348FDF734
:102C600045FE10217148FDF73FFE20216F48FDF71A
:102C70003DFE80216D48FDF737FE40216B48FDF792
:102C800035FE4FF4FA606A4908606A4908606A498B
:102C900008606A49086010BD10B501216348FDF75E
:102CA00023FE02216148FDF721FE08215F48FDF760
:102CB0001BFE04215D48FDF719FE10215B48FDF75E
:102CC00015FE20215948FDF711FE80215748FDF7D8
:102CD0000DFE40215548FDF709FE4FF4FA605449B6
:102CE000086054490860544908605449086010BDA0
:102CF00010B502214D48FDF7F7FD01214B48FDF7C6
:102D0000F5FD08214948FDF7EFFD04214748FDF78F
:102D1000EDFD20214548FDF7E7FD10214348FDF773
:102D2000E5FD80214148FDF7DFFD40213F48FDF7EB
:102D3000DDFD4448007850B94FF4E1703C4908602B
:102D40003C4908603C4908603C49086008E0642050
:102D500037490860374908603749086037490860D3
:102D600010BD10B502213148FDF7BEFD01212F48ED
:102D7000FDF7BCFD08212D48FDF7B8FD04212B48C7
:102D8000FDF7B4FD20212948FDF7AEFD10212748AD
:102D9000FDF7ACFD80212548FDF7A8FD4021234823
:102DA000FDF7A4FD4FF47A702149086021490860BD
:102DB000214908602149086010BD10B501211B4858
:102DC000FDF792FD02211948FDF790FD04211748F7
:102DD000FDF78AFD08211548FDF788FD10211348ED
:102DE000FDF782FD20211148FDF780FD40210F48AD
:102DF000FDF77AFD80210D48FDF778FD1148007838
:102E000050B94FF4E1700A4908600A4908600A495C
:102E100008600A49086008E064200549086005491F
:102E20000860054908600549086010BD00140240AB
:102E300064000020680000206C000020700000206A
:102E4000000402409600002010B501215B48FDF708
:102E50004DFD02215948FDF749FD04215748FDF772
:102E600043FD08215548FDF741FD10215348FDF76A
:102E70003DFD20215148FDF739FD40214F48FDF728
:102E800033FD80214D48FDF731FD4FF47A704C49F8
:102E900008604C4908604C4908604C49086010BD06
:102EA000A0204749086047490860474908604749EA
:102EB000086070474FF4FA60414908604149086072
:102EC000414908604149086070472DE9F041404898
:102ED000078839463F48008800F082F8BDEEC00AF6
:102EE00010EE106A3C48007830B906F5E174C6F57A
:102EF000E170A0F1370537E037480078012804D1A8
:102F0000C6F1A00406F1D7052EE033480078062864
:102F100004D106F17804C6F1AF0525E02E4800780B
:102F2000022805D140F2DC50841B06F2A4651BE0A8
:102F300029480078032809D1C6EB061000F1C8041F
:102F400006EB86008000C0F191050DE02248007874
:102F5000042803D14FF49674254605E01E480078F6
:102F6000052801D1C824C825B4F5FA6F02DD4FF455
:102F7000FA6402E0002C00DC0024B5F5FA6F02DDF3
:102F80004FF4FA6502E0002D00DC00250C480460D7
:102F90000D4804600B4805600C480560BDE8F081F1
:102FA000002801DC002007E0B0F5FA6F02DB4FF4E7
:102FB000FA6001E0094A10807047000000140240E6
:102FC00064000020680000206C00002070000020D9
:102FD0009400002038000020980000207C00002091
:102FE0002C4A1278012A0FD19FED2B0A2B4A82ED31
:102FF000000A9FED290A82ED010A9FED270A82ED62
:10300000020A0022234B1A700A1A00EE102AB8EEA8
:10301000C00A224A82ED000A92ED000A92ED023ABD
:1030200030EE030A82ED020A1D4A92ED000A1B4AA5
:1030300092ED003A20EE031A194A92ED010A174A5E
:1030400092ED023A60EE031A92ED010A92ED003A17
:1030500030EE430A124A92ED023A20EE032AD2EDF4
:10306000032A0E4A92ED000A82ED010A31EE210A8E
:1030700030EE020A30EE220AFDEEC00A92ED000A9E
:1030800082ED010A92ED020A82ED020AB8EEE00A30
:103090007047000050000020000000008C0100205C
:1030A0005400002030B587B004460D4601210420AD
:1030B000FDF73CFE01210220FDF781FEADF8105026
:1030C0000020ADF812000594ADF8180004A984485A
:1030D000FEF72DF8012211468148FEF7C9FC0121B7
:1030E0007F48FEF7ADF81D208DF80C0001208DF80B
:1030F0000D0003208DF80E0001208DF80F0003A8AD
:10310000FDF785FA4FF6FF70019001208DF8080059
:1031100000208DF80A0001208DF80B0003208DF8A7
:10312000090001A96F48FDF763FB07B030BD10B57A
:1031300001216B48FEF7B3FC01287DD16A48008865
:10314000401C6949088008460088B0F5FA6F01D133
:10315000002008806448008864490968884203DACE
:1031600001206349086008E05F4800885F490968FA
:10317000884202DB00205E4908605B4800885D49A8
:103180000968884204DA01205949091D086009E0EC
:103190005548008857490968884203DB0020544994
:1031A000091D08605048008853490968884204DABC
:1031B00001204F490831086009E04B4800884E491A
:1031C0000968884203DB0020494908310860464805
:1031D00000884A490968884204DA012044490C31D0
:1031E000086009E04048008844490968884203DBD8
:1031F00000203F490C3108603B480088404909885D
:10320000884204DA01203A490839086009E0364862
:1032100000883B490988884203DD00203449083989
:1032200008603148008837490988884205DA01205A
:103230002F49091F08600AE04DE02B4800883149FA
:103240000988884203DD00202949091F08602648B3
:1032500000882D490988884204DA01202449103960
:10326000086009E02048008827490988884203DD72
:1032700000201F49103908601B480088234909882D
:10328000884204DA01201A490C39086009E016481E
:1032900000881E490988884203DD002014490C3942
:1032A0000860114800881A490988884207DA012015
:1032B0001849086000201849C1F8A0020BE00A482C
:1032C000008813490988884205DD002011490860FB
:1032D0001149C1F8A00201210148FEF7F1FB10BD20
:1032E00000040040000802407E000020640000202E
:1032F00098024142680000206C000020700000200D
:103300007400002076000020780000207A00002061
:103310007C000020A482424200804242BF20174924
:1033200008807047B020154908807047B0201349C5
:1033300008807047C820114908807047D020104984
:103340000880704757200E4908807047DC200C49E0
:103350000880704764200B4908807047CC200949D9
:10336000088070475A200849088070473520064970
:10337000088070475A200449088070477400002074
:1033800076000020780000207A0000207FB50446F7
:103390000D4601210420FDF712FDADF80450002078
:1033A000ADF806000294ADF80C0001A92B48FDF71A
:1033B000BEFE012211462948FEF75AFB012127488B
:1033C000FDF73EFF1E208DF8000001208DF8010062
:1033D00003208DF8020001208DF803006846FDF7F8
:1033E00016F97FBD10B501211C48FEF758FB0128D6
:1033F00033D110211A48FDF75DFA18B90020194998
:10340000087002E001201749087020211448FDF7D8
:1034100051FA18B900201449087002E0012012493D
:10342000087040210E48FDF745FA18B900200F49F1
:10343000087002E001200D49087080210848FDF75E
:1034400039FA18B900200A49087002E00120084939
:10345000087001210148FEF733FB10BD0008004051
:103460000000024080000020810000208200002037
:103470008300002010B5FE480078F0B9FD480078C0
:1034800001281AD1FC4908700020FC490870FC484A
:103490000088401EFA490880FFF75AFBFFF70AFD33
:1034A0004FF4FA70FEF774FEFFF7CEFC4FF47A701B
:1034B000FEF76EFEFFF7C4FA47E0ED4800780128FA
:1034C0001ED1EC480078D8B90020EC4908700120E2
:1034D000E9490870EA480088401EE9490880FFF77A
:1034E00037FBFFF7E7FC4FF4FA70FEF751FEFFF7EA
:1034F00038FC4FF47A70FEF74BFEFFF7A1FA24E098
:10350000DB480078F0B9DB480078D8B90020DB4907
:1035100008700120D8490870D9480088401ED84951
:103520000880FFF715FBFFF7C5FC4FF4FA70FEF7B4
:103530002FFEFFF716FC4FF47A70FEF729FEFFF717
:103540007FFA02E00020CF49088010BD10B5044684
:103550000020C949087008E00220CB490880FFF725
:1035600089FFFFF7D3FAFFF7B0FCC8480068A04214
:1035700003DCC14800780028EED0FFF761FAC820CC
:10358000FEF706FE10BD10B5C1480078C0F101007D
:10359000BF4908700846007898B904E00020B74990
:1035A0000870FFF7A5FBBB480068AA28F6DCB948FD
:1035B00000688228F2DBFFF743FA9620FEF7E8FD69
:1035C00016E0B3480078012812D104E00020AB498E
:1035D0000870FFF7F2FBAF480068AA28F6DCAD4898
:1035E00000688228F2DBFFF72BFA9620FEF7D0FD69
:1035F00010BD10B5FFF796FE9620FEF7C9FD052019
:10360000FFF705F90820FFF702F9FFF7BCFFE520F7
:10361000FFF79CFF01209A49088010BD70B5002477
:1036200000250020944908709B490870994800685B
:103630009A490988884238DD15E06D1C00208F49C1
:103640000870FFF755FB96480068854201D1641C5D
:103650000025B4F57A7F06D1FFF7CBFF01208E4914
:103660000870874908808B4800688C49098888421F
:1036700003DD894800780028DFD0FFF7E1F99620C4
:10368000FEF786FD04E001207C490870FFF795FBFA
:103690008048006881490988884203DA7E480078BA
:1036A0000028F0D0FFF7CCF940E07A4800687B4969
:1036B000098888423ADA15E06D1C00206F490870CD
:1036C000FFF77BFB76480068854201D1641C00252A
:1036D000B4F57A7F06D1FFF78CFF01206E490870A0
:1036E000674908806B4800686C490988884203DA9A
:1036F000694800780028DFD0FFF7A2F96420FEF7C0
:1037000047FD04E001205D490870FFF7F1FA6148C8
:10371000006862490988884203DD5F480078002814
:10372000F0D0FFF78DF95020FEF732FD5A480078AF
:10373000012802D100205849087070BD10B5002042
:103740004D4908705348006882281BDD04E00020C2
:103750004A490870FFF7CCFA4E4800688228F6DC28
:10376000FFF76EF99620FEF713FD04E001204349B0
:103770000870FFF722FB474800688228F6DBFFF756
:103780005FF921E04348006882281DDA04E0002048
:103790003A490870FFF711FB3E4800688228F6DBC3
:1037A000FFF74EF96420FEF7F3FC04E001203349F3
:1037B0000870FFF79DFA374800688228F6DCFFF7AB
:1037C0003FF95020FEF7E4FC10BD10B50446002080
:1037D0002949087008E000202B490880FFF74AFEBD
:1037E000FFF794F9FFF771FB28480068A0420CDC52
:1037F0002148007848B92548006842F21071884293
:1038000003D01F4800880228E5D02048006842F213
:103810001071884203D01F480068884202D10120FD
:1038200017490880FFF70CF9C820FEF7B1FC08E043
:10383000012015490880FFF71DFEFFF789F9FFF702
:1038400044FB12480068A0420CDD0B48007848B9E0
:103850000E48006842F21071884203D00848008880
:103860000228E5D00948006842F21071884219E048
:1038700080000020810000208800002096000020A9
:103880008E0000208C000020980000203C000020CA
:103890008A000020380000208900002094000020C9
:1038A0008400002003D0C9480068884202D101206A
:1038B000C7490880FFF7C4F86420FEF769FC08E0F8
:1038C0000620C4490880FFF7D5FDFFF71FF9FFF771
:1038D000FCFAC1480068A0420CDCC048007848B936
:1038E000BD48006842F21071884203D0B848008891
:1038F0000228E5D0B848006842F21071884203D02F
:10390000B2480068884202D10120B1490880FFF71F
:1039100097F86420FEF73CFC10BD10B5044600206B
:10392000AE49087006E00220AA490880FFF710F9A6
:10393000FFF7CBFAA8480068A042F4DDFFF780F853
:10394000C820FEF725FC10BD10B50020A449087062
:103950000C20FEF75CFFFFF7FDFCC820FEF718FC0B
:10396000DC20A04908804FF47A70FEF711FC9748DC
:103970000068B9280FDA954800687D280BDD964865
:103980000068952807DA94480068592803DD032069
:103990008F49088021E0FFF77FF94FF4FA70FEF7B6
:1039A000F7FB00208E490870FFF7A2F94FF49670DC
:1039B000FEF7EEFBFFF744F8B4208B4908804FF484
:1039C0009670FEF7E5FBFFF7CDFCC820FEF7E0FBA5
:1039D000FFF7C0FC01207E4908800B20FEF717FF8F
:1039E00010BD10B5FFF7BAFC4FF46170FEF7D0FBC5
:1039F000FFF7BCFC8220FEF7CBFBFFF7A5FFFFF72C
:103A0000A9FC10BD10B571480068962818DA01E0CD
:103A1000FFF7EBF86D4800689628F9DBFFF710F820
:103A20006420FEF7B5FB01E0FFF7B4F867480068D3
:103A30009628F9DCFFF704F85020FEF7A9FB1BE0FD
:103A400062480068962817DD01E0FFF7A3F85F4899
:103A500000689628F9DCFEF7F3FF6420FEF798FB78
:103A600001E0FFF7C2F8594800689628F9DBFEF735
:103A7000E7FF5020FEF78CFB10BD10B50020574922
:103A8000087006E0042053490880FFF761F8FFF74B
:103A90001CFA51480068A028F4DDFEF7D1FF9620FB
:103AA000FEF776FB06E005204A490880FFF72EF86E
:103AB000FFF70BFA48480068A028F4DCFEF7C0FFC7
:103AC0009620FEF765FB06E0052042490880FFF7D7
:103AD0003FF8FFF7FAF940480068A028F4DDFEF748
:103AE000AFFF6420FEF754FB10BD10B5FFF73AFCA2
:103AF000FFF724FCFFF712FC9620FEF749FB3B483A
:103B00000088FEF784FE1E20FEF742FB0820FEF729
:103B10007EFEFFF783FD2E480088022805D18D2008
:103B2000FFF753FE01203249087029480088022817
:103B300001D1FFF756FF10BD10B5FFF703FCFFF7EB
:103B4000EDFB4FF4FA70FEF723FB0520FEF75FFE56
:103B50000820FEF75CFEFFF716FD1D4800880428CC
:103B600002D1E520FFF7D9FE05201949088010BDD4
:103B700010B5FFF7DFFB6420FEF70AFB0720FEF716
:103B800046FEFFF77AFFFFF73DFF07201049088048
:103B900010BD10B5FFF7D6FBFFF7C8FB6420FEF79A
:103BA000F7FA0620FEF733FE1E20FEF7F1FA082092
:103BB000FEF72DFEFFF7C2FDFFF7DCFB4FF47A7036
:103BC000FEF7E6FA01200249088010BD3800002007
:103BD0008E000020980000203C000020880000207B
:103BE0009600002074000020780000209000002043
:103BF000500000201CB501210820FDF797F81F2078
:103C0000009001208DF8040000208DF806000320AC
:103C10008DF8050001208DF8070069461348FCF770
:103C2000E7FD01211020FDF781F80420009001201C
:103C30008DF8040000208DF8060003208DF80500A3
:103C400001208DF8070069460948FCF7D1FD0120E5
:103C5000084908600849C1F884020649083108602B
:103C6000091D0860091D08601CBD0000000C024011
:103C700000100240808241420080414270470000B3
:103C80000FB4044910B503AA029800F025FB10BC3C
:103C90005DF814FB280000200FB41CB5084B06AAE1
:103CA0007B4469460090059800F0FDFA0446002028
:103CB000694600F00BFB20461CBC5DF814FB0000BD
:103CC000290600002DE9F0410E460446002020623E
:103CD0002046E168884730B3252805D0D4E9012182
:103CE0009047206A401CF2E7E16820460027884799
:103CF000050018D0A5F14100192802D820354FF44D
:103D000000673246294620462760FCF777FA40B123
:103D1000012804D0F61D26F007060836D8E7361D20
:103D2000D6E72846DAE7206ABDE8F0812DE9F041C0
:103D30000646002410687529314616A510D0AFF349
:103D40000080002802DA404213A507E031688A07A4
:103D500001D512A502E0490704D511A5012401E00F
:103D6000AFF3008000210A2206F1240709E0B0FB2E
:103D7000F2FCB0FBF2F302FB1C0030307854184622
:103D8000491C0028F3D123462A463046BDE8F041BD
:103D900000F01EB8000000002D0000002B00000005
:103DA0002000000070B5064600F00EF804680546D5
:103DB00030460A22002100F0A1FA2C6070BD704745
:103DC0007047704770470000004870479801002016
:103DD0002DE9F0470D4699469246044600F1240825
:103DE0000168880604D5E06921F01001216000E037
:103DF0000120A84201DD471B00E00027A1697A19D4
:103E000002EB0900081AA0612078C00602D42046FF
:103E1000AFF30080002608E0D4E901211AF806007B
:103E20009047206A401C761C20624E45F4DB2078C7
:103E3000C0060AD52046AFF3008006E0D4E9012190
:103E400030209047206A401C2062381EA7F10107ED
:103E5000F4DC07E0D4E9012118F805009047206A56
:103E6000401C2062281EA5F10105F3DC2046AFF3BB
:103E700000802078000602D50220BDE8F0870120EE
:103E8000FBE770472DE9FF4F0C461E464FF0FF370A
:103E90008BB0D2E90001DDF860800A908A46C1F358
:103EA0000A5505B93D46002108464FF00000BAF119
:103EB000000F00F4400005DA00EB80004FF44001F1
:103EC00001EA50004FEA9059B9F1010F00DDB946FF
:103ED0000A9850EA4A000ED044F61050A5F2FF3579
:103EE00045432F14B8F1000F1ED07542291E1EDD68
:103EF000C9F100021CE0B8F1010F4FF0000001D041
:103F0000302103E0F24305E02154401CB042FBDBCA
:103F100030460022002121540B99C1F80880C1E9E4
:103F200000200FB0BDE8F08FBD1B6D1CDEE74A46D8
:103F300000DA694206A800F0FFFA06AB93E8070032
:103F400003AB83E8070050460A9900F0E1FB8DE8D7
:103F50000700A0F500501F3800900398002D09DDE0
:103F600042F21F014A46084403A90390684600F044
:103F700040FE08E0A0F500504A461F3803A9039010
:103F8000684600F04AFE8DE807000004000C03D0EC
:103F90004FF0FF30410800E01046B8F1000F03D0A9
:103FA0000022009215461EE0751E05D400F0EEF9C1
:103FB000303262556D1EF9D5B3460122084302D056
:103FC00000227F1C04E02078302801D100227F1ECF
:103FD000002A099786D01DE0112D07DA00F0D6F9E6
:103FE000303262556D1C50EA0102F5D1084302D00F
:103FF0000098C8B10EE00021681E05E0235C625CF9
:1040000063542254401E491C8142F7DBAB46A81B77
:10401000401E0990002004F80B000B98099AC0F884
:104020000880C0E9002B7CE711264FF0000859E713
:104030002DE9F04F88460446D21D22F0070191B0C9
:10404000D1E90001CDE90A0100F01DFF02460B98FD
:10405000C00F01D02D2007E02068810701D52B205B
:1040600002E0202101EAC000032A099001D0072ABA
:1040700005DB03464146204600F0CEF90BE12078EF
:10408000800601D5E06900E00620B8F1650F8146A1
:1040900006D0B8F1660F18D0B8F1670F70D131E0D3
:1040A0000020B9F1110F009001DB112301E009F1AB
:1040B00001030AAA01A90CA8FFF7E4FEDDE90C70D0
:1040C000002609F10105834647E001204B46009098
:1040D0004FF000470AAA01A90CA8FFF7D3FEDDE9BB
:1040E0000DB00C995D46002610B909F101000D18BC
:1040F000B9EB050003D4C0F1FF3609F10105A5EBCA
:1041000009002BE0B9F1010F01DA4FF0010900209D
:10411000B9F1110F0090484601DD112300E003467C
:104120000AAA01A90CA8FFF7ADFEDDE90C704D4607
:1041300000268346207800070AD4AB4500DA5D46A6
:1041400001A8012D04DD411911F8011C302907D007
:104150004F4502DA17F1040F04DA012082460FE01E
:104160006D1EEEE7002F02DCED1B3E4403E0781CE1
:10417000A84200DD7D1CB81B00F1010A4FF000478A
:104180002078000703D4AA4501DB4FF0FF3A002155
:10419000B7F1004F0DF143088DF8431024D00220F1
:1041A0002B23002F01DA7F422D230A21021EA0F1CA
:1041B000010000DC5FB197FBF1FC97FBF1F201FB22
:1041C0001C7C17460CF1300C08F801CDEEE7A8F185
:1041D000010003702188090501D5452100E0652112
:1041E000A0F1010800F8011C09980FA9A1EB08072C
:1041F000FF1D00B10120411901EBEA70A1693844AB
:10420000081A401EA0612078C00602D42046AFF3F1
:104210000080099828B1D4E901219047206A401C08
:1042200020622078C00622D52046AFF300801EE031
:10423000002E04DBB34502DD01A8805D00E03020E4
:10424000D4E901219047206A401C2062761CAAF123
:1042500001005FEA000A0AD100F094F8C068016822
:10426000405CD4E901219047206A401C2062281E4E
:10427000A5F10105DCDC07E0D4E9012118F8010B08
:104280009047206A401C2062381EA7F10107F3DC2A
:104290002046AFF30080032011B043E601694A1CB9
:1042A00002610878704700B58FB0CDE90131002177
:1042B000059105497944CDE9031011466846FFF799
:1042C00001FD0FB000BD0000E5FFFFFF0A6802F826
:1042D000010B0A6070470000074B70B50D467B4428
:1042E000FFF7E1FF0446284600F094F910B14FF0C3
:1042F000FF3070BD204670BDF5DEFFFF2DE9F047B1
:1043000091460F4680460446002614F8015B2DB105
:1043100000F030F80068405DC007F6D12B2D02D0C8
:104320002D2D18D0641E4A463946204600F0B4F8B8
:1043300027B13968A14201D1C7F800804FF00204CB
:1043400071050BD54042002803DDFFF73DFD0460F9
:10435000A007BDE8F08746F48066E4E70028F8DAB5
:10436000FFF732FD04606FF00040F2E7004870474D
:104370009801002010B500F005F8001D10BD00BF29
:10438000650B000000487047B801002030B5B0F15F
:104390000A024FEA900E71F100034EEA817EB0EB03
:1043A0000E0061EB91014FEA101E4EEA017E10EB08
:1043B0000E0041EB11114FEA102E4EEA016E10EB88
:1043C0000E0041EB11214FEA104E4EEA014E10EB68
:1043D0000E0041EB1141401841F100014FEAD000BD
:1043E00040EA41704FEAD10110EB80054FEA8104A9
:1043F00044EA907444EB01046D1944EB0404521B2D
:10440000A3414FF0000348BF0A3200D530BD401C25
:1044100041F1000130BD00002DE9F0411F46044686
:1044200003260168072A01F4006004DB08B116A521
:1044300005E016A503E008B115A500E015A521F0DB
:1044400010002060A069C01EA0610FB1401EA061D5
:104450002046AFF300804FB1D4E9012138469047A0
:10446000206A401C2062C01C206206E0206AFAE735
:10447000D4E9012115F8010B9047761EF8D22046A9
:10448000AFF30080BDE8F0814E414E006E616E00DA
:10449000494E4600696E66002DE9F05F824615467A
:1044A0008B4600270AF10104B9460078302801D074
:1044B0009DB113E014F8010B0127782803D0582888
:1044C00001D045B10AE00DB1102D07D1002714F835
:1044D000010B102502E0082500E00A250026B04661
:1044E0000EE005FB080005FB06F101271FFA80F826
:1044F00001EB1046B6F5803F00D3B94614F8010B26
:10450000294600F0B0F80028EBDABBF1000F05D027
:104510000FB1641E00E05446CBF80040B9F1000F23
:1045200006D0FFF751FC02210160C81EBDE8F09FD4
:1045300048EA0640FAE700002DE9F04781461646B2
:104540008AB0334878440DC88DE80D00304878446F
:10455000801C03AC0DC884E80D0041F69B30084474
:10456000372190FBF1F290FBF1F5A5F1800501FBFD
:1045700012041B3C02D56442012000E00020DFF859
:1045800090A080460027FA44AAF1BE0A0DE0E00799
:1045900009D03246684607EB47010AEB810100F07B
:1045A0003CFB8DE8070064107F1C002CEFD1184FF6
:1045B0007F44AC3F18E0E80714D007EB04100DF17E
:1045C000180A90E80E008AE80E00C068F04201D197
:1045D00098190890324606A903A800F01EFB03AB09
:1045E00083E807006D10641C002DE4D13246694653
:1045F000B8F1000F03A802D000F0FBFA01E000F0D0
:104600000CFBC9E90001C9F808200AB0BDE8F08731
:104610005C0A0000007B00F0800070477546FFF7E1
:10462000A5FEAE4605006946534620F007008546C4
:1046300018B020B5FBF7D4FFBDE820404FF00006CE
:104640004FF000074FF000084FF0000B21F007017A
:10465000AC46ACE8C009ACE8C009ACE8C009ACE8BD
:10466000C0098D4670473A2800D2303820F0200229
:10467000412A01D3A2F13700884201D34FF0FF3025
:1046800070470446AFF300802046FBF7DCFD0000D6
:104690004FF0013C50F8042B51F8043B9A4221D1D1
:1046A000A2EB0C03934313EACC1317D150F8042B5D
:1046B00051F8043B9A4215D1A2EB0C03934313EA41
:1046C000CC130BD150F8042B51F8043B9A4209D17A
:1046D000A2EB0C03934313EACC13DBD04FF00000A2
:1046E000704700BFD01A01BAB1FA81F101F0180188
:1046F00022FA01F0CB40C1F12001DBB2C0B2C01AF6
:104700002CFA01F3D11A914311EAC311E6D1704793
:104710005FEA400C08BF91F0000F4FEA8C234FEA8C
:10472000C12243EA51514FEA1C5018BF00F5F04036
:104730004FEA300018BF41F000415FEA6C5C00F0C6
:104740002980BCF1FF3F08BF40F080407047130C48
:1047500006BF12044FF0100C4FF0000C130E04BFF4
:1047600012020CF1080C130F04BF12010CF1040C1F
:10477000930F04BF92000CF1020CD30F04BF520040
:104780000CF1010C11464FF00002A0F11F00A0EB4C
:104790000C00704711F0004F08BF704731F0004126
:1047A0003FF4D5AF0B0C06BF09044FF0100C4FF0CF
:1047B000000C0B0E04BF09020CF1080C0B0F04BF18
:1047C00009010CF1040C8B0F04BF89000CF1020CE1
:1047D000CB0F04BF49000CF1010CCCF12003A0EB7E
:1047E0000C0022FA03F302FA0CF241EA030100F191
:1047F0000100704720F07F4C80EA030023F07F47E0
:10480000ACEB070303F57C5300F0004003F1FF031A
:104810002DE980494FEA154B09B44FEA144325EAC4
:104820000B4E24EA03480FF2042606EB132749082F
:104830003E785FEA320203FB0667C7F5000707FB15
:1048400006F64FEA54374FEAD64606F1020607FB52
:10485000066CCCF1005C4FEA1C472CEA074C07FBC6
:1048600006F40CFB06F504EB15464FEA961634BF2A
:1048700000204FF000404FEAD13706FB07FC4FEA1B
:104880001C4C0CFB0BF7D21B03FB0CF761EB070175
:104890000CFB0EF7B0EB074072EB17420CFB08F76E
:1048A00034BFA2EB0742B2EB074261EB17414FEA7C
:1048B0000C444FEA910706FB07FC4FEA1C4C0CFB2B
:1048C0000BF7B0EBC74072EB573203FB0CF734BF6A
:1048D000A2EBC742B2EBC74261EB57310CFB0EF7BC
:1048E000B0EBC70072EB57720CFB08F734BFA2EBBA
:1048F000C702B2EBC70261EB5771039F4FEA8161B8
:1049000041EA921104EBCC044FEAD1374FEA8262BC
:1049100006FB07FC42EA90124FEA80604FEA1C4C0B
:104920000CFB0BF7D21B03FB0CF761EB07010CFB35
:104930000EF7B0EB074072EB17420CFB08F734BFE1
:10494000A2EB0742B2EB074261EB17414FEA8C55ED
:104950004FEA910704EB9C2406FB07FC4FEA1C4C32
:104960000CFB0BF7B0EBC74072EB573203FB0CF7B5
:1049700034BFA2EBC742B2EBC74261EB57310CFB2D
:104980000EF7B0EBC70072EB57720CFB08F734BFA1
:10499000A2EBC702B2EBC70261EB577115EB4C25D6
:1049A0004FEA816141EA92114FEA82624FEAD137C0
:1049B00042EA901206FB07FC44F100044FEA8060D3
:1049C0004FEA1C4C0CFB0BF7D21B03FB0CF761EB03
:1049D00007010CFB0EF7B0EB074072EB17420CFB24
:1049E00008F734BFA2EB0742B2EB074261EB174175
:1049F00015EB1C154FEA813141EA92414FEA8232B0
:104A000042EA90424FEA80304FEA0C7644F10004CB
:104A100048EA03434EEA0B484FF0000EB2EB080C95
:104A200071EB030724BF624639464EEB0E0E4FF082
:104A3000000B0018524149414BEB0B0BB2EB080C39
:104A400071EB03077BF1000B24BF624639464EEB46
:104A50000E0E4FF0000B0018524149414BEB0B0B6F
:104A6000B2EB080C71EB03077BF1000B24BF62462D
:104A700039464EEB0E0E51EA020718BF46F001060A
:104A800016EB0E7655F1000254F1000103D5BDE896
:104A90008901BDE80088BDE88901BDE80048B61974
:104AA000524141EB0101A3F10103704780807F7EF9
:104AB0007D7C7B7A79787776767574737271717094
:104AC0006F6E6E6D6C6C6B6A6A6968686766666546
:104AD0006464636362616160605F5F5E5E5D5D5CD4
:104AE0005C5B5B5A5A595958585757565655555545
:104AF0005454535352525251515050504F4F4F4EA5
:104B00004E4D4D4D4C4C4C4B4B4B4A4A4A494949F2
:104B10004848484747474746464645454544444434
:104B2000444343434342424242414141002B26D445
:104B3000770021D01CB54FEA370703B44FF01000BF
:104B40004FF010014FF000000FBCBDE810400BF11A
:104B5000010BBBF1010F08BF5FEA170722BF12F17B
:104B6000010211F101014FF0004143F1000300F097
:104B7000004043EA00007047F9D35708DAE746EAF5
:104B8000064613F1400F4FEA16461FDD13F1200FC2
:104B9000DFBF16430A46002120335B42C8D0C3F171
:104BA000200746EA064602FA07F74FEA164646EAA3
:104BB0000706C3F1200722FA03F201FA07F721FAE8
:104BC00003F14FF0000342EA0702B1E746EA0206AA
:104BD00046EA06464FEA164646EA0106BCBF46EAE2
:104BE0000646360C4FF000034FF000024FF0000174
:104BF0009EE72DE9C048934630B491E8380007C8D5
:104C000031EA400C48BF34EA430C03D5FFF7F2FD0C
:104C1000FFF78CFFF0BCBDE800882DE9C048934643
:104C200030B491E8380007C810F0804F08BF13F087
:104C3000804F03D100F005F8FFF778FFF0BCBDE826
:104C4000008820F07F4780EA030023F07F4C07EBC9
:104C50000C03A3F57C5300F00040A3F1FE0392F097
:104C6000000F00F0B38095F0000F00F077802DE981
:104C700001494FEA11404FEA144621EA004800FB7F
:104C800006FC24EA064708FB06F607FB08F800FBCB
:104C900007F718EB06484CEB164C4FEA124B18EB93
:104CA00007484FEA15464CEB174022EA0B4E0BFB28
:104CB00006FC25EA06470EFB06F607FB0EFE0BFB7D
:104CC00007F71EEB064E4CEB164C4FF000061EEBA2
:104CD000074E4CEB174B18EB0B0840F1000018EB9C
:104CE0000E0B58EB000840F100008F1A4FF0000146
:104CF0003CBFC943661B14BFB5EB040C00213CBF8D
:104D0000C943F61B4FEA17444EEA8E0E27EA0445C4
:104D10004FEA1C4704FB07622CEA074C05FB07F728
:104D20000CFB05F604FB0CFC16EB074642EB1742A6
:104D300016EB0C4642EB1C421BEB060658EB02023C
:104D4000414146EA9E0601D5BDE80189B6195241A6
:104D500041EB0101A3F10103BDE801894FEA1445CC
:104D60004FEA114724EA054621EA074C05FB07F400
:104D700006FB07F70CFB06F105FB0CFC11EB0741EA
:104D800044EB17444FEA124711EB0C4144EB1C442F
:104D900022EA074C05FB07F206FB07F70CFB06F6B9
:104DA00005FB0CFC16EB074642EB174216EB0C46D4
:104DB00042EB1C456A1854F1000148BF7047B61910
:104DC000524141EB0101A3F10103704795F0000F3F
:104DD00037D04FEA11424FEA144721EA024624EA4B
:104DE000074C02FB07F106FB07F70CFB06F402FB7E
:104DF0000CFC14EB074441EB17414FEA154714EB49
:104E00000C4441EB1C4125EA074C02FB07F506FB6D
:104E100007F70CFB06F602FB0CFC16EB074645EB0E
:104E2000174516EB0C4645EB1C42121951F10001D7
:104E300048BF7047B619524141EB0101A3F101038C
:104E400070474FEA14454FEA114724EA054621EA24
:104E5000074C05FB07F106FB07F70CFB06F24FF0CA
:104E6000000605FB0CFC12EB074241EB174112EB6D
:104E70000C4251EB1C4148BF7047921841EB0101B5
:104E8000A3F10103704703B401984100009850EA70
:104E9000C12018BF04204A0D18BF40F0010040F2A5
:104EA000FF72B2EB515F08BF40F00200012808BF5B
:104EB000052002B07047000010B500290AD008781C
:104EC000002807D005487844FFF7E2FB002801D00E
:104ED000002010BD0248784410BD000016010000FB
:104EE0000E01000010B500290AD00878002807D06C
:104EF00005487844FFF7CCFB002801D0002010BD06
:104F00000248784410BD000006010000FE000000C9
:104F10004FF04070E1EE100A7047FFF789B80000CB
:104F20003C434B3D0000000002400000000000A098
:104F30000000000005400000000000C80000000064
:104F40000C4000000000409C0000000019400000E0
:104F50000020BCBE0000000034400000BFC91B8E12
:104F600000000004B5400000504BCFD06607E2CFF0
:104F7000010000006C4100003E8251AADFEEA73420
:104F800001000000D9420000DCB5A0E23A301F97D2
:104F9000FFFFFFFFB4450000FD25A0C8E9A3C14FF6
:104FA000FFFFFFFFFF3F0000000000800000000047
:104FB000FF3F0000000000800000000008510008D2
:104FC000000000209C000000C4010008A45100085B
:104FD0009C0000205C070000E00100081C000000AD
:104FE00043000000F8FFFFFF0C0000000E0000006F
:104FF0000F0000002E000000100100004300000020
:10500000F8FFFFFF004040404040404040404141E9
:10501000414141404040404040404040404040408D
:105020004040404040050202020202020202020227
:105030000202020202202020202020202020200224
:1050400002020202020290909090909010101010B4
:105050001010101010101010101010101010101050
:1050600002020202020288888888888808080808E4
:1050700008080808080808080808080808080808B0
:1050800002020202400000000000000000000000D8
:105090000000000000000000000000000000000010
:1050A0000000000000000000000000000000000000
:1050B00000000000000000000000000000000000F0
:1050C00000000000000000000000000000000000E0
:1050D00000000000000000000000000000000000D0
:1050E00000000000000000000000000000000000C0
:1050F00000000000000000000000000000000000B0
:105100000000000000000000007A030A0000000018
:105110000000000001020304060708090000000067
:10512000010203040102030406070809000000004D
:10513000000000000000000000000000000000006F
:105140000000000000000000890000005200000084
:1051500099000000650000000000000000002041F0
:1051600000000000CDCC4C3F00000000000000001B
:10517000000000000000000000000000000000002F
:10518000000000006801000001010101E8030000C7
:105190000000000000000100040000009F0000006B
:0451A000000000000B
:040000050800018965
:00000001FF
